{
  "address": "0x5FbDB2315678afecb367f032d93F642f64180aa3",
  "abi": [
    {
      "inputs": [
        {
          "internalType": "address",
          "name": "_trustFactoryOwner",
          "type": "address"
        }
      ],
      "stateMutability": "nonpayable",
      "type": "constructor"
    },
    {
      "inputs": [],
      "name": "ONLY_ONWER_CAN_CALL_FUNCTION",
      "type": "error"
    },
    {
      "inputs": [],
      "name": "TRANSFER_FAILED",
      "type": "error"
    },
    {
      "stateMutability": "payable",
      "type": "fallback"
    },
    {
      "inputs": [
        {
          "internalType": "address",
          "name": "",
          "type": "address"
        }
      ],
      "name": "allTrustContracts",
      "outputs": [
        {
          "internalType": "uint256",
          "name": "trustIndex",
          "type": "uint256"
        },
        {
          "internalType": "uint256",
          "name": "percentage",
          "type": "uint256"
        },
        {
          "internalType": "uint256",
          "name": "gigCount",
          "type": "uint256"
        },
        {
          "internalType": "address",
          "name": "trustContractAddress",
          "type": "address"
        },
        {
          "internalType": "address",
          "name": "owner",
          "type": "address"
        },
        {
          "internalType": "address",
          "name": "platformAddress",
          "type": "address"
        }
      ],
      "stateMutability": "view",
      "type": "function"
    },
    {
      "inputs": [
        {
          "internalType": "uint256",
          "name": "_percentage",
          "type": "uint256"
        },
        {
          "internalType": "uint256",
          "name": "_gigCount",
          "type": "uint256"
        }
      ],
      "name": "createTrustContract",
      "outputs": [],
      "stateMutability": "nonpayable",
      "type": "function"
    },
    {
      "inputs": [],
      "name": "getAddressOfContract",
      "outputs": [
        {
          "internalType": "address",
          "name": "",
          "type": "address"
        }
      ],
      "stateMutability": "view",
      "type": "function"
    },
    {
      "inputs": [],
      "name": "getAddressOfTrustFactoryOnwer",
      "outputs": [
        {
          "internalType": "address",
          "name": "",
          "type": "address"
        }
      ],
      "stateMutability": "view",
      "type": "function"
    },
    {
      "inputs": [],
      "name": "getContractBalance",
      "outputs": [
        {
          "internalType": "uint256",
          "name": "",
          "type": "uint256"
        }
      ],
      "stateMutability": "view",
      "type": "function"
    },
    {
      "inputs": [],
      "name": "numOfTrustContracts",
      "outputs": [
        {
          "internalType": "uint256",
          "name": "",
          "type": "uint256"
        }
      ],
      "stateMutability": "view",
      "type": "function"
    },
    {
      "inputs": [
        {
          "internalType": "address",
          "name": "",
          "type": "address"
        }
      ],
      "name": "searchByAddress",
      "outputs": [
        {
          "internalType": "address",
          "name": "",
          "type": "address"
        }
      ],
      "stateMutability": "view",
      "type": "function"
    },
    {
      "inputs": [
        {
          "internalType": "uint256",
          "name": "amount",
          "type": "uint256"
        }
      ],
      "name": "withdraw",
      "outputs": [],
      "stateMutability": "payable",
      "type": "function"
    },
    {
      "stateMutability": "payable",
      "type": "receive"
    }
  ],
  "transactionHash": "0x98d9c81fb2898429efa4ba847d57e3b1abc33f3188d34979e618065a32cb5fb1",
  "args": [
    "0xf39Fd6e51aad88F6F4ce6aB8827279cffFb92266"
  ],
  "numDeployments": 1,
  "solcInputHash": "3b91ec29f354923bb882f6805a0c51dc",
  "bytecode": "0x60a060405234801561001057600080fd5b50604051611e6c380380611e6c833981810160405281019061003291906100cf565b8073ffffffffffffffffffffffffffffffffffffffff1660808173ffffffffffffffffffffffffffffffffffffffff1681525050506100fc565b600080fd5b600073ffffffffffffffffffffffffffffffffffffffff82169050919050565b600061009c82610071565b9050919050565b6100ac81610091565b81146100b757600080fd5b50565b6000815190506100c9816100a3565b92915050565b6000602082840312156100e5576100e461006c565b5b60006100f3848285016100ba565b91505092915050565b608051611d47610125600039600081816104b9015281816104df01526105670152611d476000f3fe6080604052600436106200008b5760003560e01c806360abcf64116200005557806360abcf6414620001575780636f9fb98a146200018757806395d83e3e14620001b7578063cca3a8c814620002005762000093565b80632082feda146200009557806329886c8714620000c35780632e1a7d4d14620000f35780634713078d14620001135762000093565b366200009357005b005b348015620000a257600080fd5b50620000c16004803603810190620000bb919062000762565b62000230565b005b348015620000d057600080fd5b50620000db620004b5565b604051620000ea9190620007ee565b60405180910390f35b6200011160048036038101906200010b91906200080b565b620004dd565b005b3480156200012057600080fd5b506200013f60048036038101906200013991906200086e565b6200062f565b6040516200014e9190620007ee565b60405180910390f35b3480156200016457600080fd5b506200016f62000662565b6040516200017e9190620008b1565b60405180910390f35b3480156200019457600080fd5b506200019f62000668565b604051620001ae9190620008b1565b60405180910390f35b348015620001c457600080fd5b50620001e36004803603810190620001dd91906200086e565b62000670565b604051620001f796959493929190620008ce565b60405180910390f35b3480156200020d57600080fd5b50620002186200070c565b604051620002279190620007ee565b60405180910390f35b600082338330604051620002449062000714565b6200025394939291906200093b565b604051809103906000f08015801562000270573d6000803e3d6000fd5b509050600260008154809291906200028890620009b7565b91905055506040518060c0016040528060025481526020018481526020018381526020018273ffffffffffffffffffffffffffffffffffffffff1681526020013373ffffffffffffffffffffffffffffffffffffffff1681526020013073ffffffffffffffffffffffffffffffffffffffff168152506000803373ffffffffffffffffffffffffffffffffffffffff1673ffffffffffffffffffffffffffffffffffffffff16815260200190815260200160002060008201518160000155602082015181600101556040820151816002015560608201518160030160006101000a81548173ffffffffffffffffffffffffffffffffffffffff021916908373ffffffffffffffffffffffffffffffffffffffff16021790555060808201518160040160006101000a81548173ffffffffffffffffffffffffffffffffffffffff021916908373ffffffffffffffffffffffffffffffffffffffff16021790555060a08201518160050160006101000a81548173ffffffffffffffffffffffffffffffffffffffff021916908373ffffffffffffffffffffffffffffffffffffffff16021790555090505080600160003373ffffffffffffffffffffffffffffffffffffffff1673ffffffffffffffffffffffffffffffffffffffff16815260200190815260200160002060006101000a81548173ffffffffffffffffffffffffffffffffffffffff021916908373ffffffffffffffffffffffffffffffffffffffff160217905550505050565b60007f0000000000000000000000000000000000000000000000000000000000000000905090565b7f000000000000000000000000000000000000000000000000000000000000000073ffffffffffffffffffffffffffffffffffffffff163373ffffffffffffffffffffffffffffffffffffffff161462000563576040517ff065eb4500000000000000000000000000000000000000000000000000000000815260040160405180910390fd5b60007f000000000000000000000000000000000000000000000000000000000000000073ffffffffffffffffffffffffffffffffffffffff1682604051620005ab9062000a39565b60006040518083038185875af1925050503d8060008114620005ea576040519150601f19603f3d011682016040523d82523d6000602084013e620005ef565b606091505b50509050806200062b576040517f3f4ab80e00000000000000000000000000000000000000000000000000000000815260040160405180910390fd5b5050565b60016020528060005260406000206000915054906101000a900473ffffffffffffffffffffffffffffffffffffffff1681565b60025481565b600047905090565b60006020528060005260406000206000915090508060000154908060010154908060020154908060030160009054906101000a900473ffffffffffffffffffffffffffffffffffffffff16908060040160009054906101000a900473ffffffffffffffffffffffffffffffffffffffff16908060050160009054906101000a900473ffffffffffffffffffffffffffffffffffffffff16905086565b600030905090565b6112c18062000a5183390190565b600080fd5b6000819050919050565b6200073c8162000727565b81146200074857600080fd5b50565b6000813590506200075c8162000731565b92915050565b600080604083850312156200077c576200077b62000722565b5b60006200078c858286016200074b565b92505060206200079f858286016200074b565b9150509250929050565b600073ffffffffffffffffffffffffffffffffffffffff82169050919050565b6000620007d682620007a9565b9050919050565b620007e881620007c9565b82525050565b6000602082019050620008056000830184620007dd565b92915050565b60006020828403121562000824576200082362000722565b5b600062000834848285016200074b565b91505092915050565b6200084881620007c9565b81146200085457600080fd5b50565b60008135905062000868816200083d565b92915050565b60006020828403121562000887576200088662000722565b5b6000620008978482850162000857565b91505092915050565b620008ab8162000727565b82525050565b6000602082019050620008c86000830184620008a0565b92915050565b600060c082019050620008e56000830189620008a0565b620008f46020830188620008a0565b620009036040830187620008a0565b620009126060830186620007dd565b620009216080830185620007dd565b6200093060a0830184620007dd565b979650505050505050565b6000608082019050620009526000830187620008a0565b620009616020830186620007dd565b620009706040830185620008a0565b6200097f6060830184620007dd565b95945050505050565b7f4e487b7100000000000000000000000000000000000000000000000000000000600052601160045260246000fd5b6000620009c48262000727565b91507fffffffffffffffffffffffffffffffffffffffffffffffffffffffffffffffff8203620009f957620009f862000988565b5b600182019050919050565b600081905092915050565b50565b600062000a2160008362000a04565b915062000a2e8262000a0f565b600082019050919050565b600062000a468262000a12565b915081905091905056fe60e06040523480156200001157600080fd5b50604051620012c1380380620012c1833981810160405281019062000037919062000172565b8273ffffffffffffffffffffffffffffffffffffffff1660808173ffffffffffffffffffffffffffffffffffffffff16815250508360a081815250508160c0818152505080600260006101000a81548173ffffffffffffffffffffffffffffffffffffffff021916908373ffffffffffffffffffffffffffffffffffffffff1602179055504260038190555050505050620001e4565b600080fd5b6000819050919050565b620000e781620000d2565b8114620000f357600080fd5b50565b6000815190506200010781620000dc565b92915050565b600073ffffffffffffffffffffffffffffffffffffffff82169050919050565b60006200013a826200010d565b9050919050565b6200014c816200012d565b81146200015857600080fd5b50565b6000815190506200016c8162000141565b92915050565b600080600080608085870312156200018f576200018e620000cd565b5b60006200019f87828801620000f6565b9450506020620001b2878288016200015b565b9350506040620001c587828801620000f6565b9250506060620001d8878288016200015b565b91505092959194509250565b60805160a05160c0516110836200023e6000396000818161062b015281816109300152610b210152600081816103fd01526108e001526000818161055a015281816107670152818161085f0152610a9c01526110836000f3fe6080604052600436106100f75760003560e01c80637b95a23b1161008a578063cea3e53011610059578063cea3e530146102d2578063dbe55e56146102fd578063dc58f6d714610328578063f730ab0f1461033f576100fe565b80637b95a23b146102475780638da5cb5b14610251578063ac4f0e6b1461027c578063c78ad77f146102a7576100fe565b80633ccfd60b116100c65780633ccfd60b146101af578063590791f2146101c6578063674049e3146101f15780636f9fb98a1461021c576100fe565b80630664200e14610100578063069658f41461013d5780633689e9161461015957806336fbad2614610184576100fe565b366100fe57005b005b34801561010c57600080fd5b5061012760048036038101906101229190610d2e565b610356565b6040516101349190610d9c565b60405180910390f35b61015760048036038101906101529190610d2e565b610395565b005b34801561016557600080fd5b5061016e610629565b60405161017b9190610dc6565b60405180910390f35b34801561019057600080fd5b5061019961064d565b6040516101a69190610dc6565b60405180910390f35b3480156101bb57600080fd5b506101c4610653565b005b3480156101d257600080fd5b506101db610763565b6040516101e89190610dc6565b60405180910390f35b3480156101fd57600080fd5b506102066107a2565b6040516102139190610dc6565b60405180910390f35b34801561022857600080fd5b506102316107ae565b60405161023e9190610dc6565b60405180910390f35b61024f6107b6565b005b34801561025d57600080fd5b5061026661085d565b6040516102739190610d9c565b60405180910390f35b34801561028857600080fd5b50610291610881565b60405161029e9190610dc6565b60405180910390f35b3480156102b357600080fd5b506102bc6108de565b6040516102c99190610dc6565b60405180910390f35b3480156102de57600080fd5b506102e7610902565b6040516102f49190610dc6565b60405180910390f35b34801561030957600080fd5b50610312610908565b60405161031f9190610e02565b60405180910390f35b34801561033457600080fd5b5061033d61092e565b005b34801561034b57600080fd5b50610354610a9a565b005b6000818154811061036657600080fd5b906000526020600020016000915054906101000a900473ffffffffffffffffffffffffffffffffffffffff1681565b655af3107a40008110806103a857508034105b156103df576040517ffd3a0ec200000000000000000000000000000000000000000000000000000000815260040160405180910390fd5b600160008154809291906103f290610e4c565b9190505550600060647f0000000000000000000000000000000000000000000000000000000000000000346104279190610e94565b6104319190610f1d565b90506001600080549050106105565760005b60008054905081101561055457600080828154811061046557610464610f4e565b5b9060005260206000200160009054906101000a900473ffffffffffffffffffffffffffffffffffffffff1673ffffffffffffffffffffffffffffffffffffffff16600080549050846104b79190610f1d565b6040516104c390610fae565b60006040518083038185875af1925050503d8060008114610500576040519150601f19603f3d011682016040523d82523d6000602084013e610505565b606091505b5050905080610540576040517f3f4ab80e00000000000000000000000000000000000000000000000000000000815260040160405180910390fd5b50808061054c90610e4c565b915050610443565b505b60007f000000000000000000000000000000000000000000000000000000000000000073ffffffffffffffffffffffffffffffffffffffff16823461059b9190610fc3565b6040516105a790610fae565b60006040518083038185875af1925050503d80600081146105e4576040519150601f19603f3d011682016040523d82523d6000602084013e6105e9565b606091505b5050905080610624576040517f3f4ab80e00000000000000000000000000000000000000000000000000000000815260040160405180910390fd5b505050565b7f000000000000000000000000000000000000000000000000000000000000000081565b60015481565b600a6003546106629190610ff7565b42101561069b576040517f7496b4c700000000000000000000000000000000000000000000000000000000815260040160405180910390fd5b6000600260009054906101000a900473ffffffffffffffffffffffffffffffffffffffff1673ffffffffffffffffffffffffffffffffffffffff16476040516106e390610fae565b60006040518083038185875af1925050503d8060008114610720576040519150601f19603f3d011682016040523d82523d6000602084013e610725565b606091505b5050905080610760576040517f3f4ab80e00000000000000000000000000000000000000000000000000000000815260040160405180910390fd5b50565b60007f000000000000000000000000000000000000000000000000000000000000000073ffffffffffffffffffffffffffffffffffffffff1631905090565b60008080549050905090565b600047905090565b67016345785d8a00003410156107f8576040517ffd3a0ec200000000000000000000000000000000000000000000000000000000815260040160405180910390fd5b6000339080600181540180825580915050600190039060005260206000200160009091909190916101000a81548173ffffffffffffffffffffffffffffffffffffffff021916908373ffffffffffffffffffffffffffffffffffffffff160217905550565b7f000000000000000000000000000000000000000000000000000000000000000081565b60008060008154811061089757610896610f4e565b5b9060005260206000200160009054906101000a900473ffffffffffffffffffffffffffffffffffffffff1673ffffffffffffffffffffffffffffffffffffffff1631905090565b7f000000000000000000000000000000000000000000000000000000000000000081565b60035481565b600260009054906101000a900473ffffffffffffffffffffffffffffffffffffffff1681565b7f0000000000000000000000000000000000000000000000000000000000000000600154111561098a576040517fc328c4e600000000000000000000000000000000000000000000000000000000815260040160405180910390fd5b600a6003546109999190610ff7565b4210156109d2576040517f7496b4c700000000000000000000000000000000000000000000000000000000815260040160405180910390fd5b6000600260009054906101000a900473ffffffffffffffffffffffffffffffffffffffff1673ffffffffffffffffffffffffffffffffffffffff1647604051610a1a90610fae565b60006040518083038185875af1925050503d8060008114610a57576040519150601f19603f3d011682016040523d82523d6000602084013e610a5c565b606091505b5050905080610a97576040517f3f4ab80e00000000000000000000000000000000000000000000000000000000815260040160405180910390fd5b50565b7f000000000000000000000000000000000000000000000000000000000000000073ffffffffffffffffffffffffffffffffffffffff163373ffffffffffffffffffffffffffffffffffffffff1614610b1f576040517ff065eb4500000000000000000000000000000000000000000000000000000000815260040160405180910390fd5b7f00000000000000000000000000000000000000000000000000000000000000006001541015610b7b576040517fe3cdae1900000000000000000000000000000000000000000000000000000000815260040160405180910390fd5b600160008054905010610ca65760005b600080549050811015610ca4576000808281548110610bad57610bac610f4e565b5b9060005260206000200160009054906101000a900473ffffffffffffffffffffffffffffffffffffffff1673ffffffffffffffffffffffffffffffffffffffff1660008054905067016345785d8a0000610c079190610f1d565b604051610c1390610fae565b60006040518083038185875af1925050503d8060008114610c50576040519150601f19603f3d011682016040523d82523d6000602084013e610c55565b606091505b5050905080610c90576040517f3f4ab80e00000000000000000000000000000000000000000000000000000000815260040160405180910390fd5b508080610c9c90610e4c565b915050610b8b565b505b600080610cb39190610cb5565b565b5080546000825590600052602060002090810190610cd39190610cd6565b50565b5b80821115610cef576000816000905550600101610cd7565b5090565b600080fd5b6000819050919050565b610d0b81610cf8565b8114610d1657600080fd5b50565b600081359050610d2881610d02565b92915050565b600060208284031215610d4457610d43610cf3565b5b6000610d5284828501610d19565b91505092915050565b600073ffffffffffffffffffffffffffffffffffffffff82169050919050565b6000610d8682610d5b565b9050919050565b610d9681610d7b565b82525050565b6000602082019050610db16000830184610d8d565b92915050565b610dc081610cf8565b82525050565b6000602082019050610ddb6000830184610db7565b92915050565b6000610dec82610d5b565b9050919050565b610dfc81610de1565b82525050565b6000602082019050610e176000830184610df3565b92915050565b7f4e487b7100000000000000000000000000000000000000000000000000000000600052601160045260246000fd5b6000610e5782610cf8565b91507fffffffffffffffffffffffffffffffffffffffffffffffffffffffffffffffff8203610e8957610e88610e1d565b5b600182019050919050565b6000610e9f82610cf8565b9150610eaa83610cf8565b9250817fffffffffffffffffffffffffffffffffffffffffffffffffffffffffffffffff0483118215151615610ee357610ee2610e1d565b5b828202905092915050565b7f4e487b7100000000000000000000000000000000000000000000000000000000600052601260045260246000fd5b6000610f2882610cf8565b9150610f3383610cf8565b925082610f4357610f42610eee565b5b828204905092915050565b7f4e487b7100000000000000000000000000000000000000000000000000000000600052603260045260246000fd5b600081905092915050565b50565b6000610f98600083610f7d565b9150610fa382610f88565b600082019050919050565b6000610fb982610f8b565b9150819050919050565b6000610fce82610cf8565b9150610fd983610cf8565b925082821015610fec57610feb610e1d565b5b828203905092915050565b600061100282610cf8565b915061100d83610cf8565b9250827fffffffffffffffffffffffffffffffffffffffffffffffffffffffffffffffff0382111561104257611041610e1d565b5b82820190509291505056fea2646970667358221220212bf08963f05eb40a4e7b9af42d59ee8810753a432f8ff0db2a611a2a3769c864736f6c634300080e0033a2646970667358221220b7b0074aa3f0194444a713fe81879b69f3cd62ef28999277fb1ed47e9f53737864736f6c634300080e0033",
  "devdoc": {
    "kind": "dev",
    "methods": {},
    "version": 1
  },
  "userdoc": {
    "kind": "user",
    "methods": {},
    "version": 1
  },
  "storageLayout": {
    "storage": [
      {
        "astId": 393,
        "contract": "contracts/TrustFactory.sol:TrustFactory",
        "label": "allTrustContracts",
        "offset": 0,
        "slot": "0",
        "type": "t_mapping(t_address,t_struct(trustFactoryStruct)388_storage)"
      },
      {
        "astId": 397,
        "contract": "contracts/TrustFactory.sol:TrustFactory",
        "label": "searchByAddress",
        "offset": 0,
        "slot": "1",
        "type": "t_mapping(t_address,t_address)"
      },
      {
        "astId": 399,
        "contract": "contracts/TrustFactory.sol:TrustFactory",
        "label": "numOfTrustContracts",
        "offset": 0,
        "slot": "2",
        "type": "t_uint256"
      }
    ],
    "types": {
      "t_address": {
        "encoding": "inplace",
        "label": "address",
        "numberOfBytes": "20"
      },
      "t_mapping(t_address,t_address)": {
        "encoding": "mapping",
        "key": "t_address",
        "label": "mapping(address => address)",
        "numberOfBytes": "32",
        "value": "t_address"
      },
      "t_mapping(t_address,t_struct(trustFactoryStruct)388_storage)": {
        "encoding": "mapping",
        "key": "t_address",
        "label": "mapping(address => struct TrustFactory.trustFactoryStruct)",
        "numberOfBytes": "32",
        "value": "t_struct(trustFactoryStruct)388_storage"
      },
      "t_struct(trustFactoryStruct)388_storage": {
        "encoding": "inplace",
        "label": "struct TrustFactory.trustFactoryStruct",
        "members": [
          {
            "astId": 377,
            "contract": "contracts/TrustFactory.sol:TrustFactory",
            "label": "trustIndex",
            "offset": 0,
            "slot": "0",
            "type": "t_uint256"
          },
          {
            "astId": 379,
            "contract": "contracts/TrustFactory.sol:TrustFactory",
            "label": "percentage",
            "offset": 0,
            "slot": "1",
            "type": "t_uint256"
          },
          {
            "astId": 381,
            "contract": "contracts/TrustFactory.sol:TrustFactory",
            "label": "gigCount",
            "offset": 0,
            "slot": "2",
            "type": "t_uint256"
          },
          {
            "astId": 383,
            "contract": "contracts/TrustFactory.sol:TrustFactory",
            "label": "trustContractAddress",
            "offset": 0,
            "slot": "3",
            "type": "t_address"
          },
          {
            "astId": 385,
            "contract": "contracts/TrustFactory.sol:TrustFactory",
            "label": "owner",
            "offset": 0,
            "slot": "4",
            "type": "t_address"
          },
          {
            "astId": 387,
            "contract": "contracts/TrustFactory.sol:TrustFactory",
            "label": "platformAddress",
            "offset": 0,
            "slot": "5",
            "type": "t_address"
          }
        ],
        "numberOfBytes": "192"
      },
      "t_uint256": {
        "encoding": "inplace",
        "label": "uint256",
        "numberOfBytes": "32"
      }
    }
  }
}